{
    "_format": "hh-sol-artifact-1",
    "contractName": "Web3RSVP",
    "sourceName": "contracts/Web3RSVP.sol",
    "abi": [
        {
            "anonymous": false,
            "inputs": [
                {
                    "indexed": false,
                    "internalType": "bytes32",
                    "name": "eventID",
                    "type": "bytes32"
                },
                {
                    "indexed": false,
                    "internalType": "address",
                    "name": "attendeeAddress",
                    "type": "address"
                }
            ],
            "name": "ConfirmedAttendee",
            "type": "event"
        },
        {
            "anonymous": false,
            "inputs": [
                {
                    "indexed": false,
                    "internalType": "bytes32",
                    "name": "eventID",
                    "type": "bytes32"
                }
            ],
            "name": "DepositsPaidOut",
            "type": "event"
        },
        {
            "anonymous": false,
            "inputs": [
                {
                    "indexed": false,
                    "internalType": "bytes32",
                    "name": "eventID",
                    "type": "bytes32"
                },
                {
                    "indexed": false,
                    "internalType": "address",
                    "name": "creatorAddress",
                    "type": "address"
                },
                {
                    "indexed": false,
                    "internalType": "uint256",
                    "name": "eventTimestamp",
                    "type": "uint256"
                },
                {
                    "indexed": false,
                    "internalType": "uint256",
                    "name": "maxCapacity",
                    "type": "uint256"
                },
                {
                    "indexed": false,
                    "internalType": "uint256",
                    "name": "deposit",
                    "type": "uint256"
                },
                {
                    "indexed": false,
                    "internalType": "string",
                    "name": "eventDataCID",
                    "type": "string"
                }
            ],
            "name": "NewEventCreated",
            "type": "event"
        },
        {
            "anonymous": false,
            "inputs": [
                {
                    "indexed": false,
                    "internalType": "bytes32",
                    "name": "eventID",
                    "type": "bytes32"
                },
                {
                    "indexed": false,
                    "internalType": "address",
                    "name": "attendeeAddress",
                    "type": "address"
                }
            ],
            "name": "NewRSVP",
            "type": "event"
        },
        {
            "inputs": [
                {
                    "internalType": "bytes32",
                    "name": "eventId",
                    "type": "bytes32"
                }
            ],
            "name": "confirmAllAttendees",
            "outputs": [],
            "stateMutability": "nonpayable",
            "type": "function"
        },
        {
            "inputs": [
                {
                    "internalType": "bytes32",
                    "name": "eventId",
                    "type": "bytes32"
                },
                {
                    "internalType": "address",
                    "name": "attendee",
                    "type": "address"
                }
            ],
            "name": "confirmAttendee",
            "outputs": [],
            "stateMutability": "nonpayable",
            "type": "function"
        },
        {
            "inputs": [
                {
                    "internalType": "uint256",
                    "name": "eventTimestamp",
                    "type": "uint256"
                },
                {
                    "internalType": "uint256",
                    "name": "deposit",
                    "type": "uint256"
                },
                {
                    "internalType": "uint256",
                    "name": "maxCapacity",
                    "type": "uint256"
                },
                {
                    "internalType": "string",
                    "name": "eventDataCID",
                    "type": "string"
                }
            ],
            "name": "createNewEvent",
            "outputs": [],
            "stateMutability": "nonpayable",
            "type": "function"
        },
        {
            "inputs": [
                {
                    "internalType": "bytes32",
                    "name": "eventId",
                    "type": "bytes32"
                }
            ],
            "name": "createNewRSVP",
            "outputs": [],
            "stateMutability": "payable",
            "type": "function"
        },
        {
            "inputs": [
                {
                    "internalType": "bytes32",
                    "name": "eventId",
                    "type": "bytes32"
                }
            ],
            "name": "withdrawUnclaimedDeposits",
            "outputs": [],
            "stateMutability": "nonpayable",
            "type": "function"
        }
    ],
    "bytecode": "0x608060405234801561001057600080fd5b50611f7e806100206000396000f3fe6080604052600436106100495760003560e01c806292098c1461004e57806317f0165a146100775780636dcdf2cd1461009357806379747571146100bc578063acdbe012146100e5575b600080fd5b34801561005a57600080fd5b5061007560048036038101906100709190611416565b61010e565b005b610091600480360381019061008c91906114d4565b61032a565b005b34801561009f57600080fd5b506100ba60048036038101906100b5919061155f565b610597565b005b3480156100c857600080fd5b506100e360048036038101906100de91906114d4565b610a61565b005b3480156100f157600080fd5b5061010c600480360381019061010791906114d4565b610f19565b005b60003330878787604051602001610129959493929190611608565b6040516020818303038152906040528051906020012090507f2553138c3f9c9008f266dbdbe9fc64f5b71e098d06ef714a190a65a8b9fc6bf38133888789888860405161017c97969594939291906116f2565b60405180910390a160608060405180610120016040528084815260200186868080601f016020809104026020016040519081016040528093929190818152602001838380828437600081840152601f19601f8201169050808301925050505050505081526020013373ffffffffffffffffffffffffffffffffffffffff1681526020018981526020018881526020018781526020018381526020018281526020016000151581525060008085815260200190815260200160002060008201518160000155602082015181600101908051906020019061025c929190611244565b5060408201518160020160006101000a81548173ffffffffffffffffffffffffffffffffffffffff021916908373ffffffffffffffffffffffffffffffffffffffff160217905550606082015181600301556080820151816004015560a0820151816005015560c08201518160060190805190602001906102de9291906112ca565b5060e08201518160070190805190602001906102fb9291906112ca565b506101008201518160080160006101000a81548160ff0219169083151502179055509050505050505050505050565b6000806000838152602001908152602001600020905080600401543414610386576040517f08c379a000000000000000000000000000000000000000000000000000000000815260040161037d906117a8565b60405180910390fd5b80600301544211156103cd576040517f08c379a00000000000000000000000000000000000000000000000000000000081526004016103c490611814565b60405180910390fd5b806005015481600601805490501061041a576040517f08c379a000000000000000000000000000000000000000000000000000000000815260040161041190611880565b60405180910390fd5b60005b81600601805490508160ff1610156104f4573373ffffffffffffffffffffffffffffffffffffffff16826006018260ff168154811061045f5761045e6118a0565b5b9060005260206000200160009054906101000a900473ffffffffffffffffffffffffffffffffffffffff1673ffffffffffffffffffffffffffffffffffffffff1614156104e1576040517f08c379a00000000000000000000000000000000000000000000000000000000081526004016104d89061191b565b60405180910390fd5b80806104ec90611977565b91505061041d565b5080600601339080600181540180825580915050600190039060005260206000200160009091909190916101000a81548173ffffffffffffffffffffffffffffffffffffffff021916908373ffffffffffffffffffffffffffffffffffffffff1602179055507fb79f4240bbdd272d98e02a5db7f0cf156e5fc000961c517670a26eeeec63ed90823360405161058b9291906119a1565b60405180910390a15050565b600080600084815260200190815260200160002090508060020160009054906101000a900473ffffffffffffffffffffffffffffffffffffffff1673ffffffffffffffffffffffffffffffffffffffff163373ffffffffffffffffffffffffffffffffffffffff161461063f576040517f08c379a000000000000000000000000000000000000000000000000000000000815260040161063690611a16565b60405180910390fd5b600080600090505b8260060180549050811015610721578373ffffffffffffffffffffffffffffffffffffffff16836006018281548110610683576106826118a0565b5b9060005260206000200160009054906101000a900473ffffffffffffffffffffffffffffffffffffffff1673ffffffffffffffffffffffffffffffffffffffff16141561070e578260060181815481106106e0576106df6118a0565b5b9060005260206000200160009054906101000a900473ffffffffffffffffffffffffffffffffffffffff1691505b808061071990611a36565b915050610647565b508273ffffffffffffffffffffffffffffffffffffffff168173ffffffffffffffffffffffffffffffffffffffff1614610790576040517f08c379a000000000000000000000000000000000000000000000000000000000815260040161078790611acb565b60405180910390fd5b60005b8260070180549050811015610864578373ffffffffffffffffffffffffffffffffffffffff168360070182815481106107cf576107ce6118a0565b5b9060005260206000200160009054906101000a900473ffffffffffffffffffffffffffffffffffffffff1673ffffffffffffffffffffffffffffffffffffffff161415610851576040517f08c379a000000000000000000000000000000000000000000000000000000000815260040161084890611b37565b60405180910390fd5b808061085c90611a36565b915050610793565b50600015158260080160009054906101000a900460ff161515146108bd576040517f08c379a00000000000000000000000000000000000000000000000000000000081526004016108b490611ba3565b60405180910390fd5b81600701839080600181540180825580915050600190039060005260206000200160009091909190916101000a81548173ffffffffffffffffffffffffffffffffffffffff021916908373ffffffffffffffffffffffffffffffffffffffff16021790555060008373ffffffffffffffffffffffffffffffffffffffff16836004015460405161094c90611bf4565b60006040518083038185875af1925050503d8060008114610989576040519150601f19603f3d011682016040523d82523d6000602084013e61098e565b606091505b50509050806109e157826007018054806109ab576109aa611c09565b5b6001900381819060005260206000200160006101000a81549073ffffffffffffffffffffffffffffffffffffffff021916905590555b80610a21576040517f08c379a0000000000000000000000000000000000000000000000000000000008152600401610a1890611c84565b60405180910390fd5b7ff8d1583a733d83bdd3ef5464129d0a95a36d62b382d31c6d0467a61f4264381b8585604051610a529291906119a1565b60405180910390a15050505050565b60008060008381526020019081526020016000206040518061012001604052908160008201548152602001600182018054610a9b90611cd3565b80601f0160208091040260200160405190810160405280929190818152602001828054610ac790611cd3565b8015610b145780601f10610ae957610100808354040283529160200191610b14565b820191906000526020600020905b815481529060010190602001808311610af757829003601f168201915b505050505081526020016002820160009054906101000a900473ffffffffffffffffffffffffffffffffffffffff1673ffffffffffffffffffffffffffffffffffffffff1673ffffffffffffffffffffffffffffffffffffffff16815260200160038201548152602001600482015481526020016005820154815260200160068201805480602002602001604051908101604052809291908181526020018280548015610c1657602002820191906000526020600020905b8160009054906101000a900473ffffffffffffffffffffffffffffffffffffffff1673ffffffffffffffffffffffffffffffffffffffff1681526020019060010190808311610bcc575b5050505050815260200160078201805480602002602001604051908101604052809291908181526020018280548015610ca457602002820191906000526020600020905b8160009054906101000a900473ffffffffffffffffffffffffffffffffffffffff1673ffffffffffffffffffffffffffffffffffffffff1681526020019060010190808311610c5a575b505050505081526020016008820160009054906101000a900460ff161515151581525050905080610100015115610d10576040517f08c379a0000000000000000000000000000000000000000000000000000000008152600401610d0790611d51565b60405180910390fd5b62093a808160600151610d239190611d71565b421015610d65576040517f08c379a0000000000000000000000000000000000000000000000000000000008152600401610d5c90611e13565b60405180910390fd5b806040015173ffffffffffffffffffffffffffffffffffffffff163373ffffffffffffffffffffffffffffffffffffffff1614610dd7576040517f08c379a0000000000000000000000000000000000000000000000000000000008152600401610dce90611e7f565b60405180910390fd5b60008160e00151518260c0015151610def9190611e9f565b90506000826080015182610e039190611ed3565b905060018361010001901515908115158152505060003373ffffffffffffffffffffffffffffffffffffffff1682604051610e3d90611bf4565b60006040518083038185875af1925050503d8060008114610e7a576040519150601f19603f3d011682016040523d82523d6000602084013e610e7f565b606091505b5050905080610e9b576000846101000190151590811515815250505b80610edb576040517f08c379a0000000000000000000000000000000000000000000000000000000008152600401610ed290611c84565b60405180910390fd5b7f393073ea1365f611c3d2f240c992960d2b99dc81715555d3fc40fc55ba80af9c85604051610f0a9190611f2d565b60405180910390a15050505050565b60008060008381526020019081526020016000206040518061012001604052908160008201548152602001600182018054610f5390611cd3565b80601f0160208091040260200160405190810160405280929190818152602001828054610f7f90611cd3565b8015610fcc5780601f10610fa157610100808354040283529160200191610fcc565b820191906000526020600020905b815481529060010190602001808311610faf57829003601f168201915b505050505081526020016002820160009054906101000a900473ffffffffffffffffffffffffffffffffffffffff1673ffffffffffffffffffffffffffffffffffffffff1673ffffffffffffffffffffffffffffffffffffffff168152602001600382015481526020016004820154815260200160058201548152602001600682018054806020026020016040519081016040528092919081815260200182805480156110ce57602002820191906000526020600020905b8160009054906101000a900473ffffffffffffffffffffffffffffffffffffffff1673ffffffffffffffffffffffffffffffffffffffff1681526020019060010190808311611084575b505050505081526020016007820180548060200260200160405190810160405280929190818152602001828054801561115c57602002820191906000526020600020905b8160009054906101000a900473ffffffffffffffffffffffffffffffffffffffff1673ffffffffffffffffffffffffffffffffffffffff1681526020019060010190808311611112575b505050505081526020016008820160009054906101000a900460ff1615151515815250509050806040015173ffffffffffffffffffffffffffffffffffffffff163373ffffffffffffffffffffffffffffffffffffffff16146111f4576040517f08c379a00000000000000000000000000000000000000000000000000000000081526004016111eb90611a16565b60405180910390fd5b60005b8160c001515181101561123f5761122c838360c00151838151811061121f5761121e6118a0565b5b6020026020010151610597565b808061123790611a36565b9150506111f7565b505050565b82805461125090611cd3565b90600052602060002090601f01602090048101928261127257600085556112b9565b82601f1061128b57805160ff19168380011785556112b9565b828001600101855582156112b9579182015b828111156112b857825182559160200191906001019061129d565b5b5090506112c69190611354565b5090565b828054828255906000526020600020908101928215611343579160200282015b828111156113425782518260006101000a81548173ffffffffffffffffffffffffffffffffffffffff021916908373ffffffffffffffffffffffffffffffffffffffff160217905550916020019190600101906112ea565b5b5090506113509190611354565b5090565b5b8082111561136d576000816000905550600101611355565b5090565b600080fd5b600080fd5b6000819050919050565b61138e8161137b565b811461139957600080fd5b50565b6000813590506113ab81611385565b92915050565b600080fd5b600080fd5b600080fd5b60008083601f8401126113d6576113d56113b1565b5b8235905067ffffffffffffffff8111156113f3576113f26113b6565b5b60208301915083600182028301111561140f5761140e6113bb565b5b9250929050565b60008060008060006080868803121561143257611431611371565b5b60006114408882890161139c565b95505060206114518882890161139c565b94505060406114628882890161139c565b935050606086013567ffffffffffffffff81111561148357611482611376565b5b61148f888289016113c0565b92509250509295509295909350565b6000819050919050565b6114b18161149e565b81146114bc57600080fd5b50565b6000813590506114ce816114a8565b92915050565b6000602082840312156114ea576114e9611371565b5b60006114f8848285016114bf565b91505092915050565b600073ffffffffffffffffffffffffffffffffffffffff82169050919050565b600061152c82611501565b9050919050565b61153c81611521565b811461154757600080fd5b50565b60008135905061155981611533565b92915050565b6000806040838503121561157657611575611371565b5b6000611584858286016114bf565b92505060206115958582860161154a565b9150509250929050565b60008160601b9050919050565b60006115b78261159f565b9050919050565b60006115c9826115ac565b9050919050565b6115e16115dc82611521565b6115be565b82525050565b6000819050919050565b6116026115fd8261137b565b6115e7565b82525050565b600061161482886115d0565b60148201915061162482876115d0565b60148201915061163482866115f1565b60208201915061164482856115f1565b60208201915061165482846115f1565b6020820191508190509695505050505050565b6116708161149e565b82525050565b61167f81611521565b82525050565b61168e8161137b565b82525050565b600082825260208201905092915050565b82818337600083830152505050565b6000601f19601f8301169050919050565b60006116d18385611694565b93506116de8385846116a5565b6116e7836116b4565b840190509392505050565b600060c082019050611707600083018a611667565b6117146020830189611676565b6117216040830188611685565b61172e6060830187611685565b61173b6080830186611685565b81810360a083015261174e8184866116c5565b905098975050505050505050565b7f4e6f7420656e6f756768206465706f7369740000000000000000000000000000600082015250565b6000611792601283611694565b915061179d8261175c565b602082019050919050565b600060208201905081810360008301526117c181611785565b9050919050565b7f4576656e7420616c72656164792068617070656e656400000000000000000000600082015250565b60006117fe601683611694565b9150611809826117c8565b602082019050919050565b6000602082019050818103600083015261182d816117f1565b9050919050565b7f54686973206576656e7420686173207265616368656420636170616369747900600082015250565b600061186a601f83611694565b915061187582611834565b602082019050919050565b600060208201905081810360008301526118998161185d565b9050919050565b7f4e487b7100000000000000000000000000000000000000000000000000000000600052603260045260246000fd5b7f416c726561647920636f6e6669726d6564000000000000000000000000000000600082015250565b6000611905601183611694565b9150611910826118cf565b602082019050919050565b60006020820190508181036000830152611934816118f8565b9050919050565b7f4e487b7100000000000000000000000000000000000000000000000000000000600052601160045260246000fd5b600060ff82169050919050565b60006119828261196a565b915060ff8214156119965761199561193b565b5b600182019050919050565b60006040820190506119b66000830185611667565b6119c36020830184611676565b9392505050565b7f4e6f7420617574686f72697a6564000000000000000000000000000000000000600082015250565b6000611a00600e83611694565b9150611a0b826119ca565b602082019050919050565b60006020820190508181036000830152611a2f816119f3565b9050919050565b6000611a418261137b565b91507fffffffffffffffffffffffffffffffffffffffffffffffffffffffffffffffff821415611a7457611a7361193b565b5b600182019050919050565b7f4e6f205253565020746f20636f6e6669726d0000000000000000000000000000600082015250565b6000611ab5601283611694565b9150611ac082611a7f565b602082019050919050565b60006020820190508181036000830152611ae481611aa8565b9050919050565b7f416c726561647920636c61696d65640000000000000000000000000000000000600082015250565b6000611b21600f83611694565b9150611b2c82611aeb565b602082019050919050565b60006020820190508181036000830152611b5081611b14565b9050919050565b7f416c72656164792070616964206f757400000000000000000000000000000000600082015250565b6000611b8d601083611694565b9150611b9882611b57565b602082019050919050565b60006020820190508181036000830152611bbc81611b80565b9050919050565b600081905092915050565b50565b6000611bde600083611bc3565b9150611be982611bce565b600082019050919050565b6000611bff82611bd1565b9150819050919050565b7f4e487b7100000000000000000000000000000000000000000000000000000000600052603160045260246000fd5b7f4661696c656420746f2073656e64204574686572000000000000000000000000600082015250565b6000611c6e601483611694565b9150611c7982611c38565b602082019050919050565b60006020820190508181036000830152611c9d81611c61565b9050919050565b7f4e487b7100000000000000000000000000000000000000000000000000000000600052602260045260246000fd5b60006002820490506001821680611ceb57607f821691505b60208210811415611cff57611cfe611ca4565b5b50919050565b7f416c726561647920706169640000000000000000000000000000000000000000600082015250565b6000611d3b600c83611694565b9150611d4682611d05565b602082019050919050565b60006020820190508181036000830152611d6a81611d2e565b9050919050565b6000611d7c8261137b565b9150611d878361137b565b9250827fffffffffffffffffffffffffffffffffffffffffffffffffffffffffffffffff03821115611dbc57611dbb61193b565b5b828201905092915050565b7f546f6f206561726c792077697468647261770000000000000000000000000000600082015250565b6000611dfd601283611694565b9150611e0882611dc7565b602082019050919050565b60006020820190508181036000830152611e2c81611df0565b9050919050565b7f4d757374206265206576656e74206f776e657200000000000000000000000000600082015250565b6000611e69601383611694565b9150611e7482611e33565b602082019050919050565b60006020820190508181036000830152611e9881611e5c565b9050919050565b6000611eaa8261137b565b9150611eb58361137b565b925082821015611ec857611ec761193b565b5b828203905092915050565b6000611ede8261137b565b9150611ee98361137b565b9250817fffffffffffffffffffffffffffffffffffffffffffffffffffffffffffffffff0483118215151615611f2257611f2161193b565b5b828202905092915050565b6000602082019050611f426000830184611667565b9291505056fea26469706673582212202f0e1a8a4710088fc8184992a8e817bbb5d1971f93b91036eca3c1bc7dee6c7164736f6c63430008090033",
    "linkReferences": {},
    "deployedLinkReferences": {}
}